{
  "_format": "hh-sol-artifact-1",
  "contractName": "SZolotarevych",
  "sourceName": "contracts/SZolotarevych.sol",
  "abi": [
    {
      "inputs": [],
      "stateMutability": "nonpayable",
      "type": "constructor"
    },
    {
      "anonymous": false,
      "inputs": [
        {
          "indexed": false,
          "internalType": "address",
          "name": "previousAdmin",
          "type": "address"
        },
        {
          "indexed": false,
          "internalType": "address",
          "name": "newAdmin",
          "type": "address"
        }
      ],
      "name": "AdminChanged",
      "type": "event"
    },
    {
      "anonymous": false,
      "inputs": [
        {
          "indexed": true,
          "internalType": "address",
          "name": "owner",
          "type": "address"
        },
        {
          "indexed": true,
          "internalType": "address",
          "name": "approved",
          "type": "address"
        },
        {
          "indexed": true,
          "internalType": "uint256",
          "name": "tokenId",
          "type": "uint256"
        }
      ],
      "name": "Approval",
      "type": "event"
    },
    {
      "anonymous": false,
      "inputs": [
        {
          "indexed": true,
          "internalType": "address",
          "name": "owner",
          "type": "address"
        },
        {
          "indexed": true,
          "internalType": "address",
          "name": "operator",
          "type": "address"
        },
        {
          "indexed": false,
          "internalType": "bool",
          "name": "approved",
          "type": "bool"
        }
      ],
      "name": "ApprovalForAll",
      "type": "event"
    },
    {
      "anonymous": false,
      "inputs": [
        {
          "indexed": true,
          "internalType": "address",
          "name": "beacon",
          "type": "address"
        }
      ],
      "name": "BeaconUpgraded",
      "type": "event"
    },
    {
      "anonymous": false,
      "inputs": [
        {
          "indexed": false,
          "internalType": "uint8",
          "name": "version",
          "type": "uint8"
        }
      ],
      "name": "Initialized",
      "type": "event"
    },
    {
      "anonymous": false,
      "inputs": [
        {
          "indexed": true,
          "internalType": "address",
          "name": "previousOwner",
          "type": "address"
        },
        {
          "indexed": true,
          "internalType": "address",
          "name": "newOwner",
          "type": "address"
        }
      ],
      "name": "OwnershipTransferred",
      "type": "event"
    },
    {
      "anonymous": false,
      "inputs": [
        {
          "indexed": true,
          "internalType": "address",
          "name": "from",
          "type": "address"
        },
        {
          "indexed": true,
          "internalType": "address",
          "name": "to",
          "type": "address"
        },
        {
          "indexed": true,
          "internalType": "uint256",
          "name": "tokenId",
          "type": "uint256"
        }
      ],
      "name": "Transfer",
      "type": "event"
    },
    {
      "anonymous": false,
      "inputs": [
        {
          "indexed": true,
          "internalType": "address",
          "name": "implementation",
          "type": "address"
        }
      ],
      "name": "Upgraded",
      "type": "event"
    },
    {
      "inputs": [
        {
          "internalType": "address",
          "name": "to",
          "type": "address"
        },
        {
          "internalType": "uint256",
          "name": "tokenId",
          "type": "uint256"
        }
      ],
      "name": "approve",
      "outputs": [],
      "stateMutability": "nonpayable",
      "type": "function"
    },
    {
      "inputs": [
        {
          "internalType": "address",
          "name": "owner",
          "type": "address"
        }
      ],
      "name": "balanceOf",
      "outputs": [
        {
          "internalType": "uint256",
          "name": "",
          "type": "uint256"
        }
      ],
      "stateMutability": "view",
      "type": "function"
    },
    {
      "inputs": [],
      "name": "count",
      "outputs": [
        {
          "internalType": "uint256",
          "name": "",
          "type": "uint256"
        }
      ],
      "stateMutability": "view",
      "type": "function"
    },
    {
      "inputs": [
        {
          "internalType": "uint256",
          "name": "tokenId",
          "type": "uint256"
        }
      ],
      "name": "getApproved",
      "outputs": [
        {
          "internalType": "address",
          "name": "",
          "type": "address"
        }
      ],
      "stateMutability": "view",
      "type": "function"
    },
    {
      "inputs": [],
      "name": "initialize",
      "outputs": [],
      "stateMutability": "nonpayable",
      "type": "function"
    },
    {
      "inputs": [
        {
          "internalType": "address",
          "name": "owner",
          "type": "address"
        },
        {
          "internalType": "address",
          "name": "operator",
          "type": "address"
        }
      ],
      "name": "isApprovedForAll",
      "outputs": [
        {
          "internalType": "bool",
          "name": "",
          "type": "bool"
        }
      ],
      "stateMutability": "view",
      "type": "function"
    },
    {
      "inputs": [],
      "name": "name",
      "outputs": [
        {
          "internalType": "string",
          "name": "",
          "type": "string"
        }
      ],
      "stateMutability": "view",
      "type": "function"
    },
    {
      "inputs": [],
      "name": "owner",
      "outputs": [
        {
          "internalType": "address",
          "name": "",
          "type": "address"
        }
      ],
      "stateMutability": "view",
      "type": "function"
    },
    {
      "inputs": [
        {
          "internalType": "uint256",
          "name": "tokenId",
          "type": "uint256"
        }
      ],
      "name": "ownerOf",
      "outputs": [
        {
          "internalType": "address",
          "name": "",
          "type": "address"
        }
      ],
      "stateMutability": "view",
      "type": "function"
    },
    {
      "inputs": [],
      "name": "proxiableUUID",
      "outputs": [
        {
          "internalType": "bytes32",
          "name": "",
          "type": "bytes32"
        }
      ],
      "stateMutability": "view",
      "type": "function"
    },
    {
      "inputs": [],
      "name": "renounceOwnership",
      "outputs": [],
      "stateMutability": "nonpayable",
      "type": "function"
    },
    {
      "inputs": [
        {
          "internalType": "address",
          "name": "to",
          "type": "address"
        }
      ],
      "name": "safeMint",
      "outputs": [],
      "stateMutability": "nonpayable",
      "type": "function"
    },
    {
      "inputs": [
        {
          "internalType": "address",
          "name": "from",
          "type": "address"
        },
        {
          "internalType": "address",
          "name": "to",
          "type": "address"
        },
        {
          "internalType": "uint256",
          "name": "tokenId",
          "type": "uint256"
        }
      ],
      "name": "safeTransferFrom",
      "outputs": [],
      "stateMutability": "nonpayable",
      "type": "function"
    },
    {
      "inputs": [
        {
          "internalType": "address",
          "name": "from",
          "type": "address"
        },
        {
          "internalType": "address",
          "name": "to",
          "type": "address"
        },
        {
          "internalType": "uint256",
          "name": "tokenId",
          "type": "uint256"
        },
        {
          "internalType": "bytes",
          "name": "data",
          "type": "bytes"
        }
      ],
      "name": "safeTransferFrom",
      "outputs": [],
      "stateMutability": "nonpayable",
      "type": "function"
    },
    {
      "inputs": [
        {
          "internalType": "address",
          "name": "operator",
          "type": "address"
        },
        {
          "internalType": "bool",
          "name": "approved",
          "type": "bool"
        }
      ],
      "name": "setApprovalForAll",
      "outputs": [],
      "stateMutability": "nonpayable",
      "type": "function"
    },
    {
      "inputs": [
        {
          "internalType": "bytes4",
          "name": "interfaceId",
          "type": "bytes4"
        }
      ],
      "name": "supportsInterface",
      "outputs": [
        {
          "internalType": "bool",
          "name": "",
          "type": "bool"
        }
      ],
      "stateMutability": "view",
      "type": "function"
    },
    {
      "inputs": [],
      "name": "symbol",
      "outputs": [
        {
          "internalType": "string",
          "name": "",
          "type": "string"
        }
      ],
      "stateMutability": "view",
      "type": "function"
    },
    {
      "inputs": [
        {
          "internalType": "uint256",
          "name": "tokenId",
          "type": "uint256"
        }
      ],
      "name": "tokenURI",
      "outputs": [
        {
          "internalType": "string",
          "name": "",
          "type": "string"
        }
      ],
      "stateMutability": "view",
      "type": "function"
    },
    {
      "inputs": [
        {
          "internalType": "address",
          "name": "from",
          "type": "address"
        },
        {
          "internalType": "address",
          "name": "to",
          "type": "address"
        },
        {
          "internalType": "uint256",
          "name": "tokenId",
          "type": "uint256"
        }
      ],
      "name": "transferFrom",
      "outputs": [],
      "stateMutability": "nonpayable",
      "type": "function"
    },
    {
      "inputs": [
        {
          "internalType": "address",
          "name": "newOwner",
          "type": "address"
        }
      ],
      "name": "transferOwnership",
      "outputs": [],
      "stateMutability": "nonpayable",
      "type": "function"
    },
    {
      "inputs": [
        {
          "internalType": "address",
          "name": "newImplementation",
          "type": "address"
        }
      ],
      "name": "upgradeTo",
      "outputs": [],
      "stateMutability": "nonpayable",
      "type": "function"
    },
    {
      "inputs": [
        {
          "internalType": "address",
          "name": "newImplementation",
          "type": "address"
        },
        {
          "internalType": "bytes",
          "name": "data",
          "type": "bytes"
        }
      ],
      "name": "upgradeToAndCall",
      "outputs": [],
      "stateMutability": "payable",
      "type": "function"
    }
  ],
  "bytecode": "0x60a06040523073ffffffffffffffffffffffffffffffffffffffff1660809073ffffffffffffffffffffffffffffffffffffffff168152503480156200004457600080fd5b50620000556200005b60201b60201c565b62000206565b600060019054906101000a900460ff1615620000ae576040517f08c379a0000000000000000000000000000000000000000000000000000000008152600401620000a590620001a9565b60405180910390fd5b60ff801660008054906101000a900460ff1660ff161015620001205760ff6000806101000a81548160ff021916908360ff1602179055507f7f26b83ff96e1f2b6a682f133852f6798a09c465da95921460cefb384740249860ff604051620001179190620001e9565b60405180910390a15b565b600082825260208201905092915050565b7f496e697469616c697a61626c653a20636f6e747261637420697320696e69746960008201527f616c697a696e6700000000000000000000000000000000000000000000000000602082015250565b60006200019160278362000122565b91506200019e8262000133565b604082019050919050565b60006020820190508181036000830152620001c48162000182565b9050919050565b600060ff82169050919050565b620001e381620001cb565b82525050565b6000602082019050620002006000830184620001d8565b92915050565b608051613f7a6200023e6000396000818161084b015281816108d901528181610a2301528181610ab10152610b610152613f7a6000f3fe6080604052600436106101355760003560e01c80636352211e116100ab57806395d89b411161006f57806395d89b41146103f1578063a22cb4651461041c578063b88d4fde14610445578063c87b56dd1461046e578063e985e9c5146104ab578063f2fde38b146104e857610135565b80636352211e1461031e57806370a082311461035b578063715018a6146103985780638129fc1c146103af5780638da5cb5b146103c657610135565b806323b872dd116100fd57806323b872dd146102335780633659cfe61461025c57806340d097c31461028557806342842e0e146102ae5780634f1ef286146102d757806352d1902d146102f357610135565b806301ffc9a71461013a57806306661abd1461017757806306fdde03146101a2578063081812fc146101cd578063095ea7b31461020a575b600080fd5b34801561014657600080fd5b50610161600480360381019061015c919061279b565b610511565b60405161016e91906127e3565b60405180910390f35b34801561018357600080fd5b5061018c6105f3565b6040516101999190612817565b60405180910390f35b3480156101ae57600080fd5b506101b76105fa565b6040516101c491906128c2565b60405180910390f35b3480156101d957600080fd5b506101f460048036038101906101ef9190612910565b61068c565b604051610201919061297e565b60405180910390f35b34801561021657600080fd5b50610231600480360381019061022c91906129c5565b6106d2565b005b34801561023f57600080fd5b5061025a60048036038101906102559190612a05565b6107e9565b005b34801561026857600080fd5b50610283600480360381019061027e9190612a58565b610849565b005b34801561029157600080fd5b506102ac60048036038101906102a79190612a58565b6109d1565b005b3480156102ba57600080fd5b506102d560048036038101906102d09190612a05565b610a01565b005b6102f160048036038101906102ec9190612bba565b610a21565b005b3480156102ff57600080fd5b50610308610b5d565b6040516103159190612c2f565b60405180910390f35b34801561032a57600080fd5b5061034560048036038101906103409190612910565b610c16565b604051610352919061297e565b60405180910390f35b34801561036757600080fd5b50610382600480360381019061037d9190612a58565b610c9c565b60405161038f9190612817565b60405180910390f35b3480156103a457600080fd5b506103ad610d53565b005b3480156103bb57600080fd5b506103c4610d67565b005b3480156103d257600080fd5b506103db610f21565b6040516103e8919061297e565b60405180910390f35b3480156103fd57600080fd5b50610406610f4b565b60405161041391906128c2565b60405180910390f35b34801561042857600080fd5b50610443600480360381019061043e9190612c76565b610fdd565b005b34801561045157600080fd5b5061046c60048036038101906104679190612cb6565b610ff3565b005b34801561047a57600080fd5b5061049560048036038101906104909190612910565b611055565b6040516104a291906128c2565b60405180910390f35b3480156104b757600080fd5b506104d260048036038101906104cd9190612d39565b6110bd565b6040516104df91906127e3565b60405180910390f35b3480156104f457600080fd5b5061050f600480360381019061050a9190612a58565b611151565b005b60007f80ac58cd000000000000000000000000000000000000000000000000000000007bffffffffffffffffffffffffffffffffffffffffffffffffffffffff1916827bffffffffffffffffffffffffffffffffffffffffffffffffffffffff191614806105dc57507f5b5e139f000000000000000000000000000000000000000000000000000000007bffffffffffffffffffffffffffffffffffffffffffffffffffffffff1916827bffffffffffffffffffffffffffffffffffffffffffffffffffffffff1916145b806105ec57506105eb826111d4565b5b9050919050565b61012d5481565b60606065805461060990612da8565b80601f016020809104026020016040519081016040528092919081815260200182805461063590612da8565b80156106825780601f1061065757610100808354040283529160200191610682565b820191906000526020600020905b81548152906001019060200180831161066557829003601f168201915b5050505050905090565b60006106978261123e565b6069600083815260200190815260200160002060009054906101000a900473ffffffffffffffffffffffffffffffffffffffff169050919050565b60006106dd82610c16565b90508073ffffffffffffffffffffffffffffffffffffffff168373ffffffffffffffffffffffffffffffffffffffff160361074d576040517f08c379a000000000000000000000000000000000000000000000000000000000815260040161074490612e4b565b60405180910390fd5b8073ffffffffffffffffffffffffffffffffffffffff1661076c611289565b73ffffffffffffffffffffffffffffffffffffffff16148061079b575061079a81610795611289565b6110bd565b5b6107da576040517f08c379a00000000000000000000000000000000000000000000000000000000081526004016107d190612edd565b60405180910390fd5b6107e48383611291565b505050565b6107fa6107f4611289565b8261134a565b610839576040517f08c379a000000000000000000000000000000000000000000000000000000000815260040161083090612f6f565b60405180910390fd5b6108448383836113df565b505050565b7f000000000000000000000000000000000000000000000000000000000000000073ffffffffffffffffffffffffffffffffffffffff163073ffffffffffffffffffffffffffffffffffffffff16036108d7576040517f08c379a00000000000000000000000000000000000000000000000000000000081526004016108ce90613001565b60405180910390fd5b7f000000000000000000000000000000000000000000000000000000000000000073ffffffffffffffffffffffffffffffffffffffff166109166116d8565b73ffffffffffffffffffffffffffffffffffffffff161461096c576040517f08c379a000000000000000000000000000000000000000000000000000000000815260040161096390613093565b60405180910390fd5b6109758161172f565b6109ce81600067ffffffffffffffff81111561099457610993612a8f565b5b6040519080825280601f01601f1916602001820160405280156109c65781602001600182028036833780820191505090505b50600061173a565b50565b6109d96118a8565b600061012d600081546109eb906130e2565b91905081905590506109fd8282611926565b5050565b610a1c83838360405180602001604052806000815250610ff3565b505050565b7f000000000000000000000000000000000000000000000000000000000000000073ffffffffffffffffffffffffffffffffffffffff163073ffffffffffffffffffffffffffffffffffffffff1603610aaf576040517f08c379a0000000000000000000000000000000000000000000000000000000008152600401610aa690613001565b60405180910390fd5b7f000000000000000000000000000000000000000000000000000000000000000073ffffffffffffffffffffffffffffffffffffffff16610aee6116d8565b73ffffffffffffffffffffffffffffffffffffffff1614610b44576040517f08c379a0000000000000000000000000000000000000000000000000000000008152600401610b3b90613093565b60405180910390fd5b610b4d8261172f565b610b598282600161173a565b5050565b60007f000000000000000000000000000000000000000000000000000000000000000073ffffffffffffffffffffffffffffffffffffffff163073ffffffffffffffffffffffffffffffffffffffff1614610bed576040517f08c379a0000000000000000000000000000000000000000000000000000000008152600401610be49061319c565b60405180910390fd5b7f360894a13ba1a3210667c828492db98dca3e2076cc3735a920a3ca505d382bbc60001b905090565b600080610c2283611944565b9050600073ffffffffffffffffffffffffffffffffffffffff168173ffffffffffffffffffffffffffffffffffffffff1603610c93576040517f08c379a0000000000000000000000000000000000000000000000000000000008152600401610c8a90613208565b60405180910390fd5b80915050919050565b60008073ffffffffffffffffffffffffffffffffffffffff168273ffffffffffffffffffffffffffffffffffffffff1603610d0c576040517f08c379a0000000000000000000000000000000000000000000000000000000008152600401610d039061329a565b60405180910390fd5b606860008373ffffffffffffffffffffffffffffffffffffffff1673ffffffffffffffffffffffffffffffffffffffff168152602001908152602001600020549050919050565b610d5b6118a8565b610d656000611981565b565b60008060019054906101000a900460ff16159050808015610d985750600160008054906101000a900460ff1660ff16105b80610dc55750610da730611a47565b158015610dc45750600160008054906101000a900460ff1660ff16145b5b610e04576040517f08c379a0000000000000000000000000000000000000000000000000000000008152600401610dfb9061332c565b60405180910390fd5b60016000806101000a81548160ff021916908360ff1602179055508015610e41576001600060016101000a81548160ff0219169083151502179055505b610eb56040518060400160405280600d81526020017f535a6f6c6f7461726576796368000000000000000000000000000000000000008152506040518060400160405280600481526020017f535a4c5400000000000000000000000000000000000000000000000000000000815250611a6a565b610ebd611ac7565b610ec5611b20565b8015610f1e5760008060016101000a81548160ff0219169083151502179055507f7f26b83ff96e1f2b6a682f133852f6798a09c465da95921460cefb38474024986001604051610f15919061339e565b60405180910390a15b50565b6000609760009054906101000a900473ffffffffffffffffffffffffffffffffffffffff16905090565b606060668054610f5a90612da8565b80601f0160208091040260200160405190810160405280929190818152602001828054610f8690612da8565b8015610fd35780601f10610fa857610100808354040283529160200191610fd3565b820191906000526020600020905b815481529060010190602001808311610fb657829003601f168201915b5050505050905090565b610fef610fe8611289565b8383611b71565b5050565b611004610ffe611289565b8361134a565b611043576040517f08c379a000000000000000000000000000000000000000000000000000000000815260040161103a90612f6f565b60405180910390fd5b61104f84848484611cdd565b50505050565b60606110608261123e565b600061106a611d39565b9050600081511161108a57604051806020016040528060008152506110b5565b8061109484611d50565b6040516020016110a59291906133f5565b6040516020818303038152906040525b915050919050565b6000606a60008473ffffffffffffffffffffffffffffffffffffffff1673ffffffffffffffffffffffffffffffffffffffff16815260200190815260200160002060008373ffffffffffffffffffffffffffffffffffffffff1673ffffffffffffffffffffffffffffffffffffffff16815260200190815260200160002060009054906101000a900460ff16905092915050565b6111596118a8565b600073ffffffffffffffffffffffffffffffffffffffff168173ffffffffffffffffffffffffffffffffffffffff16036111c8576040517f08c379a00000000000000000000000000000000000000000000000000000000081526004016111bf9061348b565b60405180910390fd5b6111d181611981565b50565b60007f01ffc9a7000000000000000000000000000000000000000000000000000000007bffffffffffffffffffffffffffffffffffffffffffffffffffffffff1916827bffffffffffffffffffffffffffffffffffffffffffffffffffffffff1916149050919050565b61124781611e1e565b611286576040517f08c379a000000000000000000000000000000000000000000000000000000000815260040161127d90613208565b60405180910390fd5b50565b600033905090565b816069600083815260200190815260200160002060006101000a81548173ffffffffffffffffffffffffffffffffffffffff021916908373ffffffffffffffffffffffffffffffffffffffff160217905550808273ffffffffffffffffffffffffffffffffffffffff1661130483610c16565b73ffffffffffffffffffffffffffffffffffffffff167f8c5be1e5ebec7d5bd14f71427d1e84f3dd0314c0f7b2291e5b200ac8c7c3b92560405160405180910390a45050565b60008061135683610c16565b90508073ffffffffffffffffffffffffffffffffffffffff168473ffffffffffffffffffffffffffffffffffffffff161480611398575061139781856110bd565b5b806113d657508373ffffffffffffffffffffffffffffffffffffffff166113be8461068c565b73ffffffffffffffffffffffffffffffffffffffff16145b91505092915050565b8273ffffffffffffffffffffffffffffffffffffffff166113ff82610c16565b73ffffffffffffffffffffffffffffffffffffffff1614611455576040517f08c379a000000000000000000000000000000000000000000000000000000000815260040161144c9061351d565b60405180910390fd5b600073ffffffffffffffffffffffffffffffffffffffff168273ffffffffffffffffffffffffffffffffffffffff16036114c4576040517f08c379a00000000000000000000000000000000000000000000000000000000081526004016114bb906135af565b60405180910390fd5b6114d18383836001611e5f565b8273ffffffffffffffffffffffffffffffffffffffff166114f182610c16565b73ffffffffffffffffffffffffffffffffffffffff1614611547576040517f08c379a000000000000000000000000000000000000000000000000000000000815260040161153e9061351d565b60405180910390fd5b6069600082815260200190815260200160002060006101000a81549073ffffffffffffffffffffffffffffffffffffffff02191690556001606860008573ffffffffffffffffffffffffffffffffffffffff1673ffffffffffffffffffffffffffffffffffffffff168152602001908152602001600020600082825403925050819055506001606860008473ffffffffffffffffffffffffffffffffffffffff1673ffffffffffffffffffffffffffffffffffffffff16815260200190815260200160002060008282540192505081905550816067600083815260200190815260200160002060006101000a81548173ffffffffffffffffffffffffffffffffffffffff021916908373ffffffffffffffffffffffffffffffffffffffff160217905550808273ffffffffffffffffffffffffffffffffffffffff168473ffffffffffffffffffffffffffffffffffffffff167fddf252ad1be2c89b69c2b068fc378daa952ba7f163c4a11628f55a4df523b3ef60405160405180910390a46116d38383836001611e65565b505050565b60006117067f360894a13ba1a3210667c828492db98dca3e2076cc3735a920a3ca505d382bbc60001b611e6b565b60000160009054906101000a900473ffffffffffffffffffffffffffffffffffffffff16905090565b6117376118a8565b50565b6117667f4910fdfa16fed3260ed0e7147f7cc6da11a60208b5b9406d12a635614ffd914360001b611e75565b60000160009054906101000a900460ff161561178a5761178583611e7f565b6118a3565b8273ffffffffffffffffffffffffffffffffffffffff166352d1902d6040518163ffffffff1660e01b8152600401602060405180830381865afa9250505080156117f257506040513d601f19601f820116820180604052508101906117ef91906135fb565b60015b611831576040517f08c379a00000000000000000000000000000000000000000000000000000000081526004016118289061369a565b60405180910390fd5b7f360894a13ba1a3210667c828492db98dca3e2076cc3735a920a3ca505d382bbc60001b8114611896576040517f08c379a000000000000000000000000000000000000000000000000000000000815260040161188d9061372c565b60405180910390fd5b506118a2838383611f38565b5b505050565b6118b0611289565b73ffffffffffffffffffffffffffffffffffffffff166118ce610f21565b73ffffffffffffffffffffffffffffffffffffffff1614611924576040517f08c379a000000000000000000000000000000000000000000000000000000000815260040161191b90613798565b60405180910390fd5b565b611940828260405180602001604052806000815250611f64565b5050565b60006067600083815260200190815260200160002060009054906101000a900473ffffffffffffffffffffffffffffffffffffffff169050919050565b6000609760009054906101000a900473ffffffffffffffffffffffffffffffffffffffff16905081609760006101000a81548173ffffffffffffffffffffffffffffffffffffffff021916908373ffffffffffffffffffffffffffffffffffffffff1602179055508173ffffffffffffffffffffffffffffffffffffffff168173ffffffffffffffffffffffffffffffffffffffff167f8be0079c531659141344cd1fd0a4f28419497f9722a3daafe3b4186f6b6457e060405160405180910390a35050565b6000808273ffffffffffffffffffffffffffffffffffffffff163b119050919050565b600060019054906101000a900460ff16611ab9576040517f08c379a0000000000000000000000000000000000000000000000000000000008152600401611ab09061382a565b60405180910390fd5b611ac38282611fbf565b5050565b600060019054906101000a900460ff16611b16576040517f08c379a0000000000000000000000000000000000000000000000000000000008152600401611b0d9061382a565b60405180910390fd5b611b1e612032565b565b600060019054906101000a900460ff16611b6f576040517f08c379a0000000000000000000000000000000000000000000000000000000008152600401611b669061382a565b60405180910390fd5b565b8173ffffffffffffffffffffffffffffffffffffffff168373ffffffffffffffffffffffffffffffffffffffff1603611bdf576040517f08c379a0000000000000000000000000000000000000000000000000000000008152600401611bd690613896565b60405180910390fd5b80606a60008573ffffffffffffffffffffffffffffffffffffffff1673ffffffffffffffffffffffffffffffffffffffff16815260200190815260200160002060008473ffffffffffffffffffffffffffffffffffffffff1673ffffffffffffffffffffffffffffffffffffffff16815260200190815260200160002060006101000a81548160ff0219169083151502179055508173ffffffffffffffffffffffffffffffffffffffff168373ffffffffffffffffffffffffffffffffffffffff167f17307eab39ab6107e8899845ad3d59bd9653f200f220920489ca2b5937696c3183604051611cd091906127e3565b60405180910390a3505050565b611ce88484846113df565b611cf484848484612093565b611d33576040517f08c379a0000000000000000000000000000000000000000000000000000000008152600401611d2a90613928565b60405180910390fd5b50505050565b606060405180602001604052806000815250905090565b606060006001611d5f8461221a565b01905060008167ffffffffffffffff811115611d7e57611d7d612a8f565b5b6040519080825280601f01601f191660200182016040528015611db05781602001600182028036833780820191505090505b509050600082602001820190505b600115611e13578080600190039150507f3031323334353637383961626364656600000000000000000000000000000000600a86061a8153600a8581611e0757611e06613948565b5b04945060008503611dbe575b819350505050919050565b60008073ffffffffffffffffffffffffffffffffffffffff16611e4083611944565b73ffffffffffffffffffffffffffffffffffffffff1614159050919050565b50505050565b50505050565b6000819050919050565b6000819050919050565b611e8881611a47565b611ec7576040517f08c379a0000000000000000000000000000000000000000000000000000000008152600401611ebe906139e9565b60405180910390fd5b80611ef47f360894a13ba1a3210667c828492db98dca3e2076cc3735a920a3ca505d382bbc60001b611e6b565b60000160006101000a81548173ffffffffffffffffffffffffffffffffffffffff021916908373ffffffffffffffffffffffffffffffffffffffff16021790555050565b611f418361236d565b600082511180611f4e5750805b15611f5f57611f5d83836123bc565b505b505050565b611f6e83836124a0565b611f7b6000848484612093565b611fba576040517f08c379a0000000000000000000000000000000000000000000000000000000008152600401611fb190613928565b60405180910390fd5b505050565b600060019054906101000a900460ff1661200e576040517f08c379a00000000000000000000000000000000000000000000000000000000081526004016120059061382a565b60405180910390fd5b816065908161201d9190613bab565b50806066908161202d9190613bab565b505050565b600060019054906101000a900460ff16612081576040517f08c379a00000000000000000000000000000000000000000000000000000000081526004016120789061382a565b60405180910390fd5b61209161208c611289565b611981565b565b60006120b48473ffffffffffffffffffffffffffffffffffffffff16611a47565b1561220d578373ffffffffffffffffffffffffffffffffffffffff1663150b7a026120dd611289565b8786866040518563ffffffff1660e01b81526004016120ff9493929190613cd2565b6020604051808303816000875af192505050801561213b57506040513d601f19601f820116820180604052508101906121389190613d33565b60015b6121bd573d806000811461216b576040519150601f19603f3d011682016040523d82523d6000602084013e612170565b606091505b5060008151036121b5576040517f08c379a00000000000000000000000000000000000000000000000000000000081526004016121ac90613928565b60405180910390fd5b805181602001fd5b63150b7a0260e01b7bffffffffffffffffffffffffffffffffffffffffffffffffffffffff1916817bffffffffffffffffffffffffffffffffffffffffffffffffffffffff191614915050612212565b600190505b949350505050565b600080600090507a184f03e93ff9f4daa797ed6e38ed64bf6a1f0100000000000000008310612278577a184f03e93ff9f4daa797ed6e38ed64bf6a1f010000000000000000838161226e5761226d613948565b5b0492506040810190505b6d04ee2d6d415b85acef810000000083106122b5576d04ee2d6d415b85acef810000000083816122ab576122aa613948565b5b0492506020810190505b662386f26fc1000083106122e457662386f26fc1000083816122da576122d9613948565b5b0492506010810190505b6305f5e100831061230d576305f5e100838161230357612302613948565b5b0492506008810190505b612710831061233257612710838161232857612327613948565b5b0492506004810190505b60648310612355576064838161234b5761234a613948565b5b0492506002810190505b600a8310612364576001810190505b80915050919050565b61237681611e7f565b8073ffffffffffffffffffffffffffffffffffffffff167fbc7cd75a20ee27fd9adebab32041f755214dbc6bffa90cc0225b39da2e5c2d3b60405160405180910390a250565b60606123c783611a47565b612406576040517f08c379a00000000000000000000000000000000000000000000000000000000081526004016123fd90613dd2565b60405180910390fd5b6000808473ffffffffffffffffffffffffffffffffffffffff168460405161242e9190613e2e565b600060405180830381855af49150503d8060008114612469576040519150601f19603f3d011682016040523d82523d6000602084013e61246e565b606091505b50915091506124968282604051806060016040528060278152602001613f1e602791396126bd565b9250505092915050565b600073ffffffffffffffffffffffffffffffffffffffff168273ffffffffffffffffffffffffffffffffffffffff160361250f576040517f08c379a000000000000000000000000000000000000000000000000000000000815260040161250690613e91565b60405180910390fd5b61251881611e1e565b15612558576040517f08c379a000000000000000000000000000000000000000000000000000000000815260040161254f90613efd565b60405180910390fd5b612566600083836001611e5f565b61256f81611e1e565b156125af576040517f08c379a00000000000000000000000000000000000000000000000000000000081526004016125a690613efd565b60405180910390fd5b6001606860008473ffffffffffffffffffffffffffffffffffffffff1673ffffffffffffffffffffffffffffffffffffffff16815260200190815260200160002060008282540192505081905550816067600083815260200190815260200160002060006101000a81548173ffffffffffffffffffffffffffffffffffffffff021916908373ffffffffffffffffffffffffffffffffffffffff160217905550808273ffffffffffffffffffffffffffffffffffffffff16600073ffffffffffffffffffffffffffffffffffffffff167fddf252ad1be2c89b69c2b068fc378daa952ba7f163c4a11628f55a4df523b3ef60405160405180910390a46126b9600083836001611e65565b5050565b606083156126cd578290506126d8565b6126d783836126df565b5b9392505050565b6000825111156126f25781518083602001fd5b806040517f08c379a000000000000000000000000000000000000000000000000000000000815260040161272691906128c2565b60405180910390fd5b6000604051905090565b600080fd5b600080fd5b60007fffffffff0000000000000000000000000000000000000000000000000000000082169050919050565b61277881612743565b811461278357600080fd5b50565b6000813590506127958161276f565b92915050565b6000602082840312156127b1576127b0612739565b5b60006127bf84828501612786565b91505092915050565b60008115159050919050565b6127dd816127c8565b82525050565b60006020820190506127f860008301846127d4565b92915050565b6000819050919050565b612811816127fe565b82525050565b600060208201905061282c6000830184612808565b92915050565b600081519050919050565b600082825260208201905092915050565b60005b8381101561286c578082015181840152602081019050612851565b60008484015250505050565b6000601f19601f8301169050919050565b600061289482612832565b61289e818561283d565b93506128ae81856020860161284e565b6128b781612878565b840191505092915050565b600060208201905081810360008301526128dc8184612889565b905092915050565b6128ed816127fe565b81146128f857600080fd5b50565b60008135905061290a816128e4565b92915050565b60006020828403121561292657612925612739565b5b6000612934848285016128fb565b91505092915050565b600073ffffffffffffffffffffffffffffffffffffffff82169050919050565b60006129688261293d565b9050919050565b6129788161295d565b82525050565b6000602082019050612993600083018461296f565b92915050565b6129a28161295d565b81146129ad57600080fd5b50565b6000813590506129bf81612999565b92915050565b600080604083850312156129dc576129db612739565b5b60006129ea858286016129b0565b92505060206129fb858286016128fb565b9150509250929050565b600080600060608486031215612a1e57612a1d612739565b5b6000612a2c868287016129b0565b9350506020612a3d868287016129b0565b9250506040612a4e868287016128fb565b9150509250925092565b600060208284031215612a6e57612a6d612739565b5b6000612a7c848285016129b0565b91505092915050565b600080fd5b600080fd5b7f4e487b7100000000000000000000000000000000000000000000000000000000600052604160045260246000fd5b612ac782612878565b810181811067ffffffffffffffff82111715612ae657612ae5612a8f565b5b80604052505050565b6000612af961272f565b9050612b058282612abe565b919050565b600067ffffffffffffffff821115612b2557612b24612a8f565b5b612b2e82612878565b9050602081019050919050565b82818337600083830152505050565b6000612b5d612b5884612b0a565b612aef565b905082815260208101848484011115612b7957612b78612a8a565b5b612b84848285612b3b565b509392505050565b600082601f830112612ba157612ba0612a85565b5b8135612bb1848260208601612b4a565b91505092915050565b60008060408385031215612bd157612bd0612739565b5b6000612bdf858286016129b0565b925050602083013567ffffffffffffffff811115612c0057612bff61273e565b5b612c0c85828601612b8c565b9150509250929050565b6000819050919050565b612c2981612c16565b82525050565b6000602082019050612c446000830184612c20565b92915050565b612c53816127c8565b8114612c5e57600080fd5b50565b600081359050612c7081612c4a565b92915050565b60008060408385031215612c8d57612c8c612739565b5b6000612c9b858286016129b0565b9250506020612cac85828601612c61565b9150509250929050565b60008060008060808587031215612cd057612ccf612739565b5b6000612cde878288016129b0565b9450506020612cef878288016129b0565b9350506040612d00878288016128fb565b925050606085013567ffffffffffffffff811115612d2157612d2061273e565b5b612d2d87828801612b8c565b91505092959194509250565b60008060408385031215612d5057612d4f612739565b5b6000612d5e858286016129b0565b9250506020612d6f858286016129b0565b9150509250929050565b7f4e487b7100000000000000000000000000000000000000000000000000000000600052602260045260246000fd5b60006002820490506001821680612dc057607f821691505b602082108103612dd357612dd2612d79565b5b50919050565b7f4552433732313a20617070726f76616c20746f2063757272656e74206f776e6560008201527f7200000000000000000000000000000000000000000000000000000000000000602082015250565b6000612e3560218361283d565b9150612e4082612dd9565b604082019050919050565b60006020820190508181036000830152612e6481612e28565b9050919050565b7f4552433732313a20617070726f76652063616c6c6572206973206e6f7420746f60008201527f6b656e206f776e6572206f7220617070726f76656420666f7220616c6c000000602082015250565b6000612ec7603d8361283d565b9150612ed282612e6b565b604082019050919050565b60006020820190508181036000830152612ef681612eba565b9050919050565b7f4552433732313a2063616c6c6572206973206e6f7420746f6b656e206f776e6560008201527f72206f7220617070726f76656400000000000000000000000000000000000000602082015250565b6000612f59602d8361283d565b9150612f6482612efd565b604082019050919050565b60006020820190508181036000830152612f8881612f4c565b9050919050565b7f46756e6374696f6e206d7573742062652063616c6c6564207468726f7567682060008201527f64656c656761746563616c6c0000000000000000000000000000000000000000602082015250565b6000612feb602c8361283d565b9150612ff682612f8f565b604082019050919050565b6000602082019050818103600083015261301a81612fde565b9050919050565b7f46756e6374696f6e206d7573742062652063616c6c6564207468726f7567682060008201527f6163746976652070726f78790000000000000000000000000000000000000000602082015250565b600061307d602c8361283d565b915061308882613021565b604082019050919050565b600060208201905081810360008301526130ac81613070565b9050919050565b7f4e487b7100000000000000000000000000000000000000000000000000000000600052601160045260246000fd5b60006130ed826127fe565b91507fffffffffffffffffffffffffffffffffffffffffffffffffffffffffffffffff820361311f5761311e6130b3565b5b600182019050919050565b7f555550535570677261646561626c653a206d757374206e6f742062652063616c60008201527f6c6564207468726f7567682064656c656761746563616c6c0000000000000000602082015250565b600061318660388361283d565b91506131918261312a565b604082019050919050565b600060208201905081810360008301526131b581613179565b9050919050565b7f4552433732313a20696e76616c696420746f6b656e2049440000000000000000600082015250565b60006131f260188361283d565b91506131fd826131bc565b602082019050919050565b60006020820190508181036000830152613221816131e5565b9050919050565b7f4552433732313a2061646472657373207a65726f206973206e6f74206120766160008201527f6c6964206f776e65720000000000000000000000000000000000000000000000602082015250565b600061328460298361283d565b915061328f82613228565b604082019050919050565b600060208201905081810360008301526132b381613277565b9050919050565b7f496e697469616c697a61626c653a20636f6e747261637420697320616c72656160008201527f647920696e697469616c697a6564000000000000000000000000000000000000602082015250565b6000613316602e8361283d565b9150613321826132ba565b604082019050919050565b6000602082019050818103600083015261334581613309565b9050919050565b6000819050919050565b600060ff82169050919050565b6000819050919050565b600061338861338361337e8461334c565b613363565b613356565b9050919050565b6133988161336d565b82525050565b60006020820190506133b3600083018461338f565b92915050565b600081905092915050565b60006133cf82612832565b6133d981856133b9565b93506133e981856020860161284e565b80840191505092915050565b600061340182856133c4565b915061340d82846133c4565b91508190509392505050565b7f4f776e61626c653a206e6577206f776e657220697320746865207a65726f206160008201527f6464726573730000000000000000000000000000000000000000000000000000602082015250565b600061347560268361283d565b915061348082613419565b604082019050919050565b600060208201905081810360008301526134a481613468565b9050919050565b7f4552433732313a207472616e736665722066726f6d20696e636f72726563742060008201527f6f776e6572000000000000000000000000000000000000000000000000000000602082015250565b600061350760258361283d565b9150613512826134ab565b604082019050919050565b60006020820190508181036000830152613536816134fa565b9050919050565b7f4552433732313a207472616e7366657220746f20746865207a65726f2061646460008201527f7265737300000000000000000000000000000000000000000000000000000000602082015250565b600061359960248361283d565b91506135a48261353d565b604082019050919050565b600060208201905081810360008301526135c88161358c565b9050919050565b6135d881612c16565b81146135e357600080fd5b50565b6000815190506135f5816135cf565b92915050565b60006020828403121561361157613610612739565b5b600061361f848285016135e6565b91505092915050565b7f45524331393637557067726164653a206e657720696d706c656d656e7461746960008201527f6f6e206973206e6f742055555053000000000000000000000000000000000000602082015250565b6000613684602e8361283d565b915061368f82613628565b604082019050919050565b600060208201905081810360008301526136b381613677565b9050919050565b7f45524331393637557067726164653a20756e737570706f727465642070726f7860008201527f6961626c65555549440000000000000000000000000000000000000000000000602082015250565b600061371660298361283d565b9150613721826136ba565b604082019050919050565b6000602082019050818103600083015261374581613709565b9050919050565b7f4f776e61626c653a2063616c6c6572206973206e6f7420746865206f776e6572600082015250565b600061378260208361283d565b915061378d8261374c565b602082019050919050565b600060208201905081810360008301526137b181613775565b9050919050565b7f496e697469616c697a61626c653a20636f6e7472616374206973206e6f74206960008201527f6e697469616c697a696e67000000000000000000000000000000000000000000602082015250565b6000613814602b8361283d565b915061381f826137b8565b604082019050919050565b6000602082019050818103600083015261384381613807565b9050919050565b7f4552433732313a20617070726f766520746f2063616c6c657200000000000000600082015250565b600061388060198361283d565b915061388b8261384a565b602082019050919050565b600060208201905081810360008301526138af81613873565b9050919050565b7f4552433732313a207472616e7366657220746f206e6f6e20455243373231526560008201527f63656976657220696d706c656d656e7465720000000000000000000000000000602082015250565b600061391260328361283d565b915061391d826138b6565b604082019050919050565b6000602082019050818103600083015261394181613905565b9050919050565b7f4e487b7100000000000000000000000000000000000000000000000000000000600052601260045260246000fd5b7f455243313936373a206e657720696d706c656d656e746174696f6e206973206e60008201527f6f74206120636f6e747261637400000000000000000000000000000000000000602082015250565b60006139d3602d8361283d565b91506139de82613977565b604082019050919050565b60006020820190508181036000830152613a02816139c6565b9050919050565b60008190508160005260206000209050919050565b60006020601f8301049050919050565b600082821b905092915050565b600060088302613a6b7fffffffffffffffffffffffffffffffffffffffffffffffffffffffffffffffff82613a2e565b613a758683613a2e565b95508019841693508086168417925050509392505050565b6000613aa8613aa3613a9e846127fe565b613363565b6127fe565b9050919050565b6000819050919050565b613ac283613a8d565b613ad6613ace82613aaf565b848454613a3b565b825550505050565b600090565b613aeb613ade565b613af6818484613ab9565b505050565b5b81811015613b1a57613b0f600082613ae3565b600181019050613afc565b5050565b601f821115613b5f57613b3081613a09565b613b3984613a1e565b81016020851015613b48578190505b613b5c613b5485613a1e565b830182613afb565b50505b505050565b600082821c905092915050565b6000613b8260001984600802613b64565b1980831691505092915050565b6000613b9b8383613b71565b9150826002028217905092915050565b613bb482612832565b67ffffffffffffffff811115613bcd57613bcc612a8f565b5b613bd78254612da8565b613be2828285613b1e565b600060209050601f831160018114613c155760008415613c03578287015190505b613c0d8582613b8f565b865550613c75565b601f198416613c2386613a09565b60005b82811015613c4b57848901518255600182019150602085019450602081019050613c26565b86831015613c685784890151613c64601f891682613b71565b8355505b6001600288020188555050505b505050505050565b600081519050919050565b600082825260208201905092915050565b6000613ca482613c7d565b613cae8185613c88565b9350613cbe81856020860161284e565b613cc781612878565b840191505092915050565b6000608082019050613ce7600083018761296f565b613cf4602083018661296f565b613d016040830185612808565b8181036060830152613d138184613c99565b905095945050505050565b600081519050613d2d8161276f565b92915050565b600060208284031215613d4957613d48612739565b5b6000613d5784828501613d1e565b91505092915050565b7f416464726573733a2064656c65676174652063616c6c20746f206e6f6e2d636f60008201527f6e74726163740000000000000000000000000000000000000000000000000000602082015250565b6000613dbc60268361283d565b9150613dc782613d60565b604082019050919050565b60006020820190508181036000830152613deb81613daf565b9050919050565b600081905092915050565b6000613e0882613c7d565b613e128185613df2565b9350613e2281856020860161284e565b80840191505092915050565b6000613e3a8284613dfd565b915081905092915050565b7f4552433732313a206d696e7420746f20746865207a65726f2061646472657373600082015250565b6000613e7b60208361283d565b9150613e8682613e45565b602082019050919050565b60006020820190508181036000830152613eaa81613e6e565b9050919050565b7f4552433732313a20746f6b656e20616c7265616479206d696e74656400000000600082015250565b6000613ee7601c8361283d565b9150613ef282613eb1565b602082019050919050565b60006020820190508181036000830152613f1681613eda565b905091905056fe416464726573733a206c6f772d6c6576656c2064656c65676174652063616c6c206661696c6564a2646970667358221220faf21bc8db4eb86b29fb339986d894046ab4f7600eff01199307e1321de256b064736f6c63430008120033",
  "linkReferences": {},
  "deployedLinkReferences": {}
}